:100000000C942A000C9447000C94A8010C9447000F
:100010000C9447000C9447000C9496020C944700F3
:100020000C9447000C9447000C9447000C94E40295
:100030000C9447000C9447000C9447000C94470024
:100040000C9447000C9447000C9447000C94470014
:100050000C94470011241FBECFE5D8E0DEBFCDBF12
:1000600010E0A0E6B0E0EEECFBE002C005900D92DF
:10007000A037B107D9F710E0A0E7B0E001C01D92AA
:10008000AC37B107E1F70E9498050C94E5050C9494
:1000900000003E9A3F98389839983A983B983C9897
:1000A00034983098319A329A089533980895379A4F
:1000B000089537980895369A0895369A349BFECF5E
:1000C00024B135B1349AC90108958FEF8ABB87BB3B
:1000D00084BB81BB0895843008F075C0683008F097
:1000E00072C04130B1F5813099F0813030F082300A
:1000F000D1F0833009F067C021C02AB381E090E0DD
:1001000002C0880F991F6A95E2F7282B2ABB089531
:1001100027B381E090E002C0880F991F6A95E2F74B
:10012000282B27BB089524B381E090E002C0880FFC
:10013000991F6A95E2F7282B24BB089521B381E02B
:1001400090E002C0880F991F6A95E2F7282B21BB27
:1001500008954423C1F5813099F0813028F0823030
:10016000D9F0833081F524C02AB381E090E002C049
:10017000880F991F6A95E2F7809582238ABB0895BC
:1001800027B381E090E002C0880F991F6A95E2F7DB
:100190008095822387BB089524B381E090E002C05C
:1001A000880F991F6A95E2F78095822384BB089592
:1001B00021B381E090E002C0880F991F6A95E2F7B1
:1001C0008095822381BB0895843008F075C0683023
:1001D00008F072C04130B1F5813099F0813030F0D3
:1001E0008230D1F0833009F067C021C02BB381E0A9
:1001F00090E002C0880F991F6A95E2F7282B2BBB6D
:10020000089528B381E090E002C0880F991F6A9595
:10021000E2F7282B28BB089525B381E090E002C0C7
:10022000880F991F6A95E2F7282B25BB089522B302
:1002300081E090E002C0880F991F6A95E2F7282BB1
:1002400022BB08954423C1F5813099F0813028F014
:100250008230D9F0833081F524C02BB381E090E067
:1002600002C0880F991F6A95E2F7809582238BBBA5
:10027000089528B381E090E002C0880F991F6A9525
:10028000E2F78095822388BB089525B381E090E052
:1002900002C0880F991F6A95E2F78095822385BB7B
:1002A000089522B381E090E002C0880F991F6A95FB
:1002B000E2F78095822382BB0895843090F4683001
:1002C00080F4813049F0813028F0823039F0833079
:1002D00041F406C089B3089586B3089583B30895A1
:1002E00080B30895813049F0813028F0823039F0B0
:1002F000833041F406C06ABB089567BB089564BBB0
:10030000089561BB0895813049F0813028F0823032
:1003100039F0833041F406C06BBB089568BB089583
:1003200065BB089562BB089585B7846085BF85B7B6
:10033000886085BF08958BB780688BBF08958BB7A1
:100340008F778BBF0895909371008093700008950C
:100350001F920F920FB60F9211242F933F934F933A
:100360005F936F937F938F939F93AF93BF93EF931D
:10037000FF93E0917000F09171000995FF91EF916A
:10038000BF91AF919F918F917F916F915F914F91AD
:100390003F912F910F900FBE0F901F9018958FB720
:1003A00080688FBF08958FB78F778FBF089580E2E1
:1003B00080B988E282B986B7846086BF86B78064D8
:1003C00086BF089590E290B9109A96B7906496BF50
:1003D00096B7946096BF880F82B9089586B78068F3
:1003E00086BF86B7806286BF06B607FEFDCF81B1A5
:1003F00090E0887F883009F091E0892F089586B7D2
:10040000806886BF86B7806286BF06B607FEFDCFCE
:1004100081B1887F803111F082E0089580E00895F5
:10042000880F816083B986B78F7D86BF86B7806865
:1004300086BF06B607FEFDCF81B1887F803411F0FC
:1004400083E0089580E0089513B886B78F7D86BF56
:1004500086B7806886BF06B607FEFDCF81B1887F6C
:10046000883111F084E0089580E0089583B986B75B
:10047000806886BF06B607FEFDCF81B1887F8832CF
:1004800011F085E0089580E00895FC0183B1808338
:1004900086B7806886BF86B7846086BF06B607FECB
:1004A000FDCF81B1887F883411F086E0089580E027
:1004B000089586B7806186BF86B7806886BF089535
:1004C000FC0186B7806486BF86B7806886BF06B6A3
:1004D00007FEFDCF81B1887F803811F087E0089555
:1004E00083B1808380E008958EB58E7F8EBD8EB5FA
:1004F00082608EBD8EB58B7F8EBD1DBC1CBC17BCB3
:1005000016BC8EB580648EBD08958EB580648EBD98
:1005100008958EB58F7B8EBD089526B537B5C90178
:100520000895909373008093720008951F920F9224
:100530000FB60F9211242F933F934F935F936F93B6
:100540007F938F939F93AF93BF93EF93FF93E0912C
:100550007200F09173000995FF91EF91BF91AF91F7
:100560009F918F917F916F915F914F913F912F91CB
:100570000F900FBE0F901F90189583B7816083BFB7
:1005800083B7826083BF83B7846083BF12BE089540
:1005900083B7886083BF83B7806483BF83B78F7E50
:1005A00083BF83B7806283BF12BE83B7826083BF7D
:1005B000089582BF08958CBF089582B708959093DF
:1005C00075008093740008951F920F920FB60F92DA
:1005D00011242F933F934F935F936F937F938F9348
:1005E0009F93AF93BF93EF93FF93E0917400F091CB
:1005F00075000995FF91EF91BF91AF919F918F91F8
:100600007F916F915F914F913F912F910F900FBE0E
:100610000F901F90189581B5886081BD81B58E7F40
:1006200081BD81B5826081BD81B5846081BD089541
:1006300081B5877F81BD81B5806181BD0895A89511
:1006400008959093770080937600089508958FB968
:10065000779BFECF0895779BFECF8FB108956E9A5A
:100660006D9A6C9A6B986A9808956E9A6D9A6C98C8
:100670006B986A980895539A549A83E389B90895B8
:100680005D9BFECF8CB908955F9BFECF8CB1089522
:10069000CF92DF92EF92FF920F931F93DF93CF934E
:1006A0000F92CDB7DEB71982EE24FF249CE4C92E49
:1006B0009DE1D92E0E2D0C5F80E0602F40E00E945E
:1006C000E40010E080E0612F0E945D018823B1F416
:1006D000C6010197F1F780E0612F0E945D01882338
:1006E00069F4E12FF0E0EE0FFF1FEE0FFF1FEE0D9C
:1006F000FF1DE05AFF4F8081898303C01F5F1430C4
:1007000009F780E0602F41E00E94E400898188239E
:1007100039F40894E11CF11C84E0E816F10451F668
:1007200089810F90CF91DF911F910F91FF90EF90F2
:10073000DF90CF90089580E064E041E00E946B007C
:1007400080E065E041E00E946B0080E066E041E00F
:100750000E946B0080E067E041E00E946B0080E057
:1007600060E040E00E946B0080E061E040E00E94B9
:100770006B0080E062E040E00E946B0080E063E09C
:1007800040E00E946B0080E060E041E00E94E400F5
:1007900080E061E041E00E94E40080E062E041E04E
:1007A0000E94E40080E063E041E00E94E40080E019
:1007B00064E041E00E94E40080E065E041E00E94E6
:1007C000E40080E066E041E00E94E40080E067E051
:1007D00041E00E94E4000895EF92FF921F93182FCA
:1007E00082E063E040E00E94E40088E893E1019742
:1007F000F1F7412F4295417081E064E00E94E400EE
:10080000412F42954695417081E065E00E94E400E9
:10081000412F429546954695417081E066E00E94E1
:10082000E400412F441F4427441F81E067E00E94F9
:10083000E40082E062E041E00E94E40084EFE82E00
:1008400081E0F82EC7010197F1F782E062E040E015
:100850000E94E400C7010197F1F7412F417081E048
:1008600064E00E94E400412F4695417081E065E01C
:100870000E94E40016951695412F417081E066E0D4
:100880000E94E4001695117081E067E0412F0E94FC
:10089000E40082E062E041E00E94E400C7010197C9
:1008A000F1F782E062E040E00E94E400C7010197B6
:1008B000F1F71F91FF90EF900895623058F4803166
:1008C00048F46295660F660F607C680F862F80681B
:1008D0000E94EC030895EF92FF921F93182F82E07D
:1008E00063E041E00E94E400412F4295417081E0C5
:1008F00064E00E94E400412F42954695417081E0FA
:1009000065E00E94E400412F42954695469541706E
:1009100081E066E00E94E400412F441F4427441F09
:1009200081E067E00E94E40082E062E041E00E9432
:10093000E40094EFE92E91E0F92EC7010197F1F759
:1009400082E062E040E00E94E400C7010197F1F715
:10095000412F417081E064E00E94E400412F469500
:10096000417081E065E00E94E40016951695412FE4
:10097000417081E066E00E94E4001695117081E00C
:1009800067E0412F0E94E40082E062E041E00E94C3
:10099000E400C7010197F1F782E062E040E00E94C5
:1009A000E400C7010197F1F71F91FF90EF900895C0
:1009B000AF92BF92CF92DF92EF92FF920F931F936D
:1009C000DF93CF93CDB7DEB760970FB6F894DEBF55
:1009D0000FBECDBF7B018C016115710581059105AD
:1009E00049F480E30E946B045E010894A11CB11CD1
:1009F000650126C097FFF8CF8DE20E946B04109529
:100A00000095F094E094E11CF11C011D111DECCF48
:100A1000C801B7012AE030E040E050E00E94A8059C
:100A2000605DF60161936F01C801B7012AE030E013
:100A300040E050E00E94A805C901DA017C018D0167
:100A40008C2D8A19E114F1040105110509F7F82E1E
:100A5000FA948F2D992787FD90958E010F5F1F4F78
:100A6000080F191F07C0F80180810E946B04FA94D7
:100A700001501040F7FEF7CF60960FB6F894DEBF36
:100A80000FBECDBFCF91DF911F910F91FF90EF90DF
:100A9000DF90CF90BF90AF9008950F931F93CF93A7
:100AA000DF938C01C0E0D0E0F801EC0FFD1F8081E6
:100AB0000E946B042196C830D105B1F7DF91CF9128
:100AC0001F910F91089581E064E041E00E946B0066
:100AD00081E065E041E00E946B0081E066E041E07A
:100AE0000E946B0081E067E041E00E946B0082E0C1
:100AF00062E041E00E946B0082E063E041E00E941E
:100B00006B0088EA91E60197F1F782E00E94EC031E
:100B100088E20E94EC038CE00E94EC0381E00E94DA
:100B2000EC0386E00E94EC0380E80E94EC03089549
:100B30001F930E9463050E949B030E944803182F85
:100B400080E060E00E945D04812F0E946B04F5CF7D
:100B500097FB092E05260ED057FD04D014D00AD0DD
:100B6000001C38F450954095309521953F4F4F4FDC
:100B70005F4F0895F6F790958095709561957F4F3A
:100B80008F4F9F4F0895A1E21A2EAA1BBB1BFD0198
:100B90000DC0AA1FBB1FEE1FFF1FA217B307E4075C
:100BA000F50720F0A21BB30BE40BF50B661F771FB4
:100BB000881F991F1A9469F7609570958095909594
:0E0BC0009B01AC01BD01CF010895F894FFCF59
:100BCE0037383925343536783132332D2A303D2BAE
:00000001FF
